:100000000C94B0020C94CD020C94CD020C94CD0251
:100010000C94CD020C94CD020C94CD020C94CD0224
:100020000C94CD020C94CD020C94DB220C94AE23E4
:100030000C94691D0C94CD020C94CD020C94CD024D
:100040000C94CD020C94CD020C94CD020C94CD02F4
:100050000C94CD020C94011E0C94CD020C94CD0294
:100060000C94CD020C94CD020C94CD020C94CD02D4
:100070000C94CD020C94CD020C94CD020C94CD02C4
:100080000C94CD020C94CD020C94CD020C94CD02B4
:100090000C94CD020C94CD020C94CD020C94CD02A4
:1000A0000C94CD020C94CD020C94CD0229001A00C0
:1000B0000800150017001C0018000000350039006A
:1000C00004001600070009000A0000001E00E100FD
:1000D0001D001B0006001900050000001F00215232
:1000E0002078E000E300E2008B00000020008800A0
:1000F000E6006500E4002A0000000000260027005A
:100100002D002E0021002200230024000C001200EC
:1001100013002F00890023782B0014000B000D0022
:100120000E000F003000280025780000110011009B
:100130001000360033003400320027782C00000015
:100140002C008A00370038008700250001000100DC
:100150000100010001000100010000000100010098
:100160000100010001000100010000003A0001004F
:100170000100010001000100010000003B0001003E
:100180002178010001000100010000003C00010095
:100190000100010001004C0000000000420043008B
:1001A000440045003D003E003F00400001000100CA
:1001B0000100010001000100010001000100010037
:1001C0000100010001000100010000000100010028
:1001D0000100010001000100010001000100000018
:1001E00001000100010001000100410001000100C7
:1001F00001000100010001000100000001000100F8
:1002000001000100010001000100000001000100E7
:1002100001000100010001000100000001000100D7
:1002200001000100010001000100000001000100C7
:1002300001000100010001000000000001000100B8
:1002400001000100010001000100010001000100A6
:100250000100010001000100010001000100010096
:100260000100010001000100010000000100010087
:100270000100010001000100010001000100000077
:100280000100010001000100010001000100010066
:100290000100010001000100010000000100010057
:1002A0000100010001000100010000000100010047
:1002B0000100010001000100010000000100010037
:1002C0000100010001000100010000000100010027
:1002D0000100010001000100000000000100010018
:1002E0000100010001000100010001000100010006
:1002F00001000100010001000100010001000100F6
:1003000001000100010001000100000001000100E6
:1003100001000100010001000100010001000000D6
:1003200001000100010001000100010000000000C7
:10033000000000002A2B2800000000000000000040
:100340000000000000000029000000002C1E3420E6
:10035000212224342627252E362D3738271E1F200C
:100360002122232425263333362E37381F04050651
:100370000708090A0B0C0D0E0F1011121314151695
:100380001718191A1B1C1D2F3130232D3504050693
:100390000708090A0B0C0D0E0F1011121314151675
:1003A0001718191A1B1C1D2F3130354C0000000086
:1003B000000000000000000000000000000000003D
:1003C000000000000000000000000000000000002D
:1003D0007E0F00D4FFFFFFC700000078200343001A
:1003E000680069006C00640068006F006F006400C2
:1003F00027007300200045006E00640000000E031B
:1004000043006800650065006E00610000000403A1
:10041000090409025B00030100A0FA0904000001BD
:100420000301010009211101000122440007058197
:100430000308000109040100020300000009211162
:1004400001000122220007058203200001070503A5
:10045000032000010904020001030000000921112A
:10046000010001227B000705840320000112010026
:100470000200000008C016DB27010001020001068F
:1004800060FF0961A1010962150026FF0095207532
:100490000881020963150026FF0095207508910266
:1004A000C005010902A10185020901A10005091980
:1004B000012908150025019508750181020501092A
:1004C0003009311581257F95027508810609381597
:1004D00081257F950175088106050C0A3802158172
:1004E000257F950175088106C0C005010980A1011D
:1004F000850319012AB700150126B700950175106B
:100500008100C0050C0901A101850419012AA0027E
:10051000150126A002950175108100C0050109068C
:10052000A101050719E029E71500250195087501C6
:1005300081029501750881010507190029FF150041
:1005400026FF009506750881000508190129051583
:10055000002501950575019102950175039101C072
:1005600011241FBECFEFDAE0DEBFCDBF11E0A0E067
:10057000B1E0E6E2FDE402C005900D92A63AB107B3
:10058000D9F722E0A6EAB1E001C01D92A638B20771
:10059000E1F70E94EF120C942D260C940000A0E0CD
:1005A000B0E0E5EDF2E00C948425E0E2F1E02AE22F
:1005B00031E0EF0141E050E08991A82FA295AF70A2
:1005C000B0E091966C9191978F706A0102C0CC0C4B
:1005D000DD1C8A95E2F7C6019C2D90959623919695
:1005E0009C93919792969C919297892B92968C933B
:1005F0002C173D0709F7C8E1D1E040E251E0BE0108
:1006000001E010E0DB018D91BD01A82FA295AF7034
:10061000B0E09196FC9091978F70680102C0CC0C6D
:10062000DD1C8A95E2F7C6019C2D90959F2191963D
:100630009C93919792969C919297892B92968C93EA
:1006400046175707F9F661E070E08991A82FA29547
:10065000AF70B0E091961C9191978F707B0102C0B2
:10066000EE0CFF1C8A95E2F7C7019E2D9095912311
:1006700091969C93919792969C919297892B9296A2
:100680008C934C175D0709F761E070E08191A82F0A
:10069000A295AF70B0E091964C9191978F708B01BD
:1006A00002C0000F111F8A95E2F7C801902F9095A4
:1006B000942391969C93919792969C919297892BD3
:1006C00092968C932E173F0709F7CDB7DEB7E8E077
:1006D0000C94A025A7E0B0E0E0E7F3E00C947A25C5
:1006E0008C012C0125E0420E511C80E291E09A839E
:1006F00089835801F12CE42C752C88248394912C47
:10070000D501ED915D01ED831E926D01E981FA81C4
:100710008191FA83E983F82FF295FF702F2F30E053
:100720003F832E83D90191969C9191978F701401EC
:1007300001C0220C8A95EAF7892F822991968C9321
:10074000919792968C919297622C609486219296C2
:100750008C930E947412E8E1F1E0FC83EB8320E0CB
:1007600030E04191A42FA295AF70A05EB0E08C91D3
:10077000D6015C9190E04F7002C0959587954A959F
:10078000E2F780FD8DC0882D022E01C0880F0A94EB
:10079000EAF7852BD6018C932F5F3F4F2830310528
:1007A00001F7EE81FF8181A1682261A282A18229E5
:1007B00082A381E09C91FD819F1301C080E0F82A13
:1007C000A414B50409F09CCFC12CD12CAA24A39465
:1007D000B12C9801265F3F4F4901AB81BC810D913F
:1007E000BC83AB83B02FB295BF702B2E312CF1019F
:1007F00081A10F70950102C0220F331F0A95E2F705
:100800008901822B81A382A1522E5094852182A33B
:100810000E947412C5010C2C01C0880F0A94EAF7DB
:10082000582F5095EE2DF72DA0E2B1E0BF83AE8397
:1008300040E09191AE81BF816D91BF83AE83262F41
:1008400022952F70205E30E0D9012C9130E06F703E
:1008500002C0359527956A95E2F7692F20FD22C0E1
:10086000682B9F0121503109D9016C93961341E007
:100870008E169F06F1F6F10181A1582251A282A1A4
:10088000802B82A3F42AFFEFCF1ADF0A28E0C216DA
:10089000D10409F0A2CF8F2D2796E2E10C94962582
:1008A00080E077CF6523DDCF8430C8F46A30B8F4B8
:1008B0004830A8F4E62FF0E09AE0899FE00DF11DA2
:1008C000112483E0EE0FFF1F8A95E1F7E40FF11D7D
:1008D000EE0FFF1FE455FF4F85919491089581E03D
:1008E00090E0089581E008950E947204089581E0E7
:1008F00008950E94720408950E947904089508954D
:100900000E947F040895A6E0B0E0E9E8F4E00C94CA
:10091000892549835A839E833091AD0189819A81CB
:1009200031111AC03E81332399F0222389F00E94AD
:10093000760A182F682F89819A810E94530A69814B
:100940007A81812F0E945F112696E3E00C94A52501
:100950000E94640A182FF3CF0E94760A69817A8177
:10096000F1CFFC01262F4081518162817381848106
:1009700095810E9483040895CF93DF93D82FC92FC8
:1009800061E00E94B1046D2F7C2F0E947404DF91FE
:10099000CF910895CF93DF93D82FC92F60E00E94A5
:1009A000B1046D2F7C2F0E948004DF91CF910895B8
:1009B00081E008950E94D8040895CF93C82F0E9423
:1009C00047098C2F0E94DA042FEF84E39CE021502A
:1009D00080409040E1F700C00000CF91089581E091
:1009E0000E94DD040E94251E089580E00E94DD041F
:1009F0000E94361E08950F931F93CF93DF938C01AF
:100A000061E00E94B104EC01B8010E94C31A88237E
:100A100009F442C0B801CE010E947C048823E1F1B0
:100A2000B801CE010E94D1198823B1F1B801CE01DD
:100A30000E94E114882381F1B801CE010E94B6140E
:100A4000882351F1B801CE010E94121A882321F1A6
:100A5000F8018581882381F0CA35FCE7DF0739F189
:100A600078F4C130ECE7DE07F9F0C330FCE7DF07CC
:100A7000C9F0C115DC4771F0C8010E9477040DC0B0
:100A8000CB35ECE7DE07B1F0CC35DC47A9F70E94A7
:100A9000960EF2CF0E94EF0480E0DF91CF911F917C
:100AA0000F9108950E94A80E0E94F504F5CF0E94B0
:100AB000A00EE2CF0E94A40EDFCF0E94461D0E942E
:100AC000840508950E9488050E944B1D089508958D
:100AD00081E008950895CF93DF93D82F0E94680591
:100AE000C82F882319F08D2F0E946A058C2FDF9163
:100AF000CF9108950895CF93C82F0E9467058C2F3A
:100B00000E946B05CF91089580E00E947B050895B7
:100B10000E94191C0E947B050895CF930E94191C06
:100B2000C82F8091A8018C1779F0C093A8010E946A
:100B3000D51D6093A9017093AA018093AB01909396
:100B4000AC018C2F0E947B05CF910895ADE0B0E001
:100B5000ECEAF5E00C948A25488759876A877B87F9
:100B60008C879D8791110E94D30D1F8286E0FE0124
:100B70003896DE01119601900D928A95E1F78D81EC
:100B800081110DC029813A814B815C816D817E810B
:100B90008F810E94190D2D96E2E00C94A625CE01BE
:100BA00001960E94BC048111EDCFF5CFFC01848138
:100BB000813021F4808191810E949F0A08956623EB
:100BC00029F00E944F160E94251708950E94AD1625
:100BD000FACFCF93C82F8823C9F08238C9F40E9476
:100BE000261C81FD13C089E30E94E01C0E94440E74
:100BF0002FEF37EE83E0215030408040E1F700C016
:100C0000000089E30E94E81C0E94440ECF910895E1
:100C10008338A1F40E94261C80FDF8CF83E50E9452
:100C2000E01C0E94440E9FEF21EE34E091502040E2
:100C30003040E1F700C0000083E5E4CF8438A1F440
:100C40000E94261C82FDE2CF87E40E94E01C0E94E5
:100C5000440E8FEF91EE24E0815090402040E1F768
:100C600000C0000087E4CECF8CEF8C0F813A70F487
:100C70008C2F0E94A31C882329F08C2F0E94E81C33
:100C80000E94440E8C2F0E94E01CBECF80E28C0F8D
:100C9000883048F4C77081E001C0880FCA95EAF730
:100CA0000E94B40DB1CF8BE58C0F833038F42C2F1C
:100CB0002452330BC9010E94431CA8CFE8E5EC0F76
:100CC000EB3150F4F0E0EE0FFF1FE65DFE4F808148
:100CD00091810E94691C9ACF83E38C0F833108F0C5
:100CE00095CF61E08C2F0E94DF0590CF882309F417
:100CF00056C0823879F40E94261C81FF50C089E3D7
:100D00000E94E01C0E94440E89E30E94E81C0E949D
:100D1000440E0895833859F40E94261C80FF3FC07A
:100D200083E50E94E01C0E94440E83E5EECF8438E8
:100D300059F40E94261C82FF32C087E40E94E01C06
:100D40000E94440E87E4E1CF9CEF980F913AE8F2BD
:100D500090E2980F983050F4877091E001C0990F9D
:100D60008A95EAF7892F0E94BA0DD1CF9BE5980F9B
:100D7000933028F480E090E00E94431C089598E5A9
:100D8000980F9B3128F480E090E00E94691C089540
:100D900093E3980F933118F460E00E94DF05089503
:100DA0001F93CF93DF93182FEB010E94E905209743
:100DB00039F4812F0E947606DF91CF911F9108951B
:100DC0008FE99FE00197F1F700C000002197EFCF76
:100DD00060E070E0893311F460E570E00E94D006B5
:100DE0000895882321F00E94B40D0E94440E0895B6
:100DF000882321F00E94BA0D0E94440E0895A0E0BD
:100E0000B0E0E5E0F7E00C9484256C01D62FC72F05
:100E1000FC011581068102950F700E94A90DE82E34
:100E20008823F9F0E12E1123E1F08C2F807F8034AC
:100E300061F080E28D0F8830F0F08C2F807E803260
:100E400021F4D230C0F00023B1F08091600282FF23
:100E500012C082E00E94690E0E94A90D91E0E82E66
:100E6000E926EC2FE295EF70C03CB0F5F0E0E15DD3
:100E7000F94D0C946D25E12CF4CF0C2F0F70C0317F
:100E800010F00295007F112399F0002359F080E2C1
:100E90008D0F883010F0D11107C0802F0E94B40D43
:100EA0000E94440E8D2F51C0802F0E94C50DF8CF97
:100EB0008D2F0E947606002379F080E28D0F883016
:100EC00010F0D11104C0802F0E94BA0D03C0802FF2
:100ED0000E94CB0D0E94440EEE2089F00E94A50DC9
:100EE00080FD0DC0F60115820E949F0D0E94C10970
:100EF000C6010E940E090E949F0D0E94CD09CDB728
:100F0000DEB7E8E00C94A025FC2FFF70FF2EC07F19
:100F1000C03219F0F29480EFF822DD2341F0D13095
:100F2000D1F1112309F444C00023F1F0BBCF80912B
:100F3000600282FD15C0112359F0FF2029F08F2D8A
:100F40000E94B40D0E94440E80E00E94E905C4CFC7
:100F500080E00E947606FF2009F4BECF8F2DB4CF2B
:100F6000112369F0011104C08F2D0E94F106B4CF46
:100F7000013009F0B1CF8F2D0E94EB0DADCF0111E3
:100F8000ABCF8F2D0E94F8068F2D0E94F70D8F2D6D
:100F90000E94DA0DA1CF112321F0063008F09CCF7A
:100FA000E3CF053008F098CF8F2D0E94F80694CF3C
:100FB0000023D1F3D93349F42FEF87EE93E021508A
:100FC00080409040E1F700C000008D2F0E9476061F
:100FD00083CF8C2F869586958370882369F0813026
:100FE00009F07ACF8D2F9C2F9370111102C080E0F1
:100FF00090E00E94691C70CF8D2F9C2F937011116F
:1010000002C080E090E00E94431C66CF612F8D2FCC
:101010000E94DF0561CF8C2F8370811134C01111C4
:1010200024C04D2F429546954770440F440F8D2F95
:101030008F70042E01C0880F0A94EAF7D071DD2367
:1010400041F02FE030E001C0220F4A95EAF7D22F9D
:10105000D095C695C695C3708D2BC23071F0C33044
:1010600079F0C13039F00E949D090E94191C0E943C
:101070007B0532CF0E949709F8CF0E94A309F5CFD4
:101080000E949409F2CF112339F1C0FFEECF4D2F0A
:10109000429546954770440F440F8D2F8F70042E54
:1010A00001C0880F0A94EAF7D071DD2341F02FE0E8
:1010B00030E001C0220F4A95EAF7D22FD095C695AD
:1010C000C695C3708D2BC23069F0C33071F0C1304A
:1010D00031F00E94EF09C9CF823038F2D8CF0E9498
:1010E000E909C3CF0E94F509C0CF0E94AF09BDCF67
:1010F000CF70112339F08C2F0E94C1098D2F0E94CF
:10110000F106B3CF8D2F0E94F8068C2F0E94CD09D7
:10111000ACCFD23F31F170F4D03FB9F0D13FB1F153
:10112000112309F451C0002309F44BC08D2F0E94F4
:10113000E9059BCFD33FE1F0D43F21F11111F3CF6B
:10114000011150C08C2F8F71E1CF112341F0053078
:1011500008F08BCF8C2F8F710E94DD0986CF053070
:10116000F7CF8C2F8F711111D1CF0E94C1097DCF84
:10117000112329F08C2F8F710E94B80976CF0E941D
:10118000B40973CF8091600282FD06C08C2F8F71ED
:10119000112309F4BBCFE9CF112349F0CF718C2F74
:1011A0000E94C10963E08C2F0E944B0E5ECF81E04C
:1011B0000E94690E023008F458CF82E00E94690E46
:1011C00054CF8C2F8F71D1CF002309F4BBCFD933EB
:1011D00049F4EFEFF7EE23E0E150F0402040E1F773
:1011E00000C000008D2F0E9476063FCF0F931F9303
:1011F000CF93DF93EC01688179818D810E94AC0AE5
:101200008C010E94FB090E949309B801CE010E9443
:10121000FF06DF91CF911F910F910895CF93DF9338
:10122000EC018C81882399F0CE010E94FB0481118E
:1012300011C00E94A90D882351F08D81882339F0B7
:101240008091600282FF03C082E00E94690EDF91FC
:10125000CF910895CE010E94F608CE010E94CA04E3
:10126000F6CF80E090E00E94431C80E090E00E9476
:10127000691C0E94D30D0E94440E0E9442170E94D6
:10128000251708950E94F01C0E94310908950E94BC
:10129000C20D0E9442090895282F92959F709630A2
:1012A00091F060F4925F9F70923030F481E0203FC3
:1012B00079F030F4283E30F080E008959A5FF3CF63
:1012C000243FD1F7089581E0283EE0F3213FF9CF94
:1012D0000895FC018481882339F0808191810E94E6
:1012E0009F0A0E944C09089580E00895A6E0B0E0AE
:1012F000ECE7F9E00C948A252696E2E00C94A6250A
:10130000A7E0B0E0E6E8F9E00C948A252796E2E051
:101310000C94A62508950E948A0908950E948B09BD
:101320008093CD01089508950E948E0908959091AB
:10133000CD01892B0E948E0908959091CD018923BA
:101340000E948E0908959091CD0189270E948E09EF
:1013500008950E948A0908950E94A90908950E948B
:10136000AC098093CC01089580E00E94AF090895F4
:1013700091E001C0990F8A95EAF7892F0E94AF0981
:10138000089521E030E001C0220F8A95EAF78091AC
:10139000CC01822B0E94AF09089521E030E0A90121
:1013A00002C0440F551F8A95E2F7CA0180959091BB
:1013B000CC0189230E94AF09089521E030E001C0EB
:1013C000220F8A95EAF78091CC0182270E94AF090B
:1013D00008959091CC01892B0E94AF0908959091B6
:1013E000CC0189230E94AF0908959091CC018927EF
:1013F0000E94AF09089508959B01677091E001C0B4
:10140000990F6A95EAF763E0369527956A95E1F7B3
:10141000B901660F771F260F371FFA01E20FF31F7E
:1014200040E050E0682F70E08191DF0111979B014F
:10143000042E02C0369527950A94E2F72170219573
:101440002827292328272C934F5F5F4F43305105CE
:1014500059F708959C01A82FA77083E0369527952A
:101460008A95E1F7C901880F991F820F931FFB012D
:10147000E80FF91F40E050E080E0219130E00A2EB3
:1014800002C0369527950A94E2F721703327042E7F
:1014900001C0220F0A94EAF7822B4F5F5F4F43305F
:1014A000510559F70895282F862F9A3060F4283077
:1014B00050F438E0939FB0011124620F711D4EEA81
:1014C00051E00E94FC090895282F9A3068F4883072
:1014D00058F438E0939FC00111246EEA71E0820F46
:1014E000911D0E942A0A089580E00895A0E0B0E0CE
:1014F000ECE7FAE00C9485257C010091CC01809109
:10150000CD01082BC3E0D0E010E0C8010C2E02C0D2
:10151000959587950A94E2F780FD09C02197A8F771
:10152000D12C8D2DCDB7DEB7E7E00C94A125DC2EB4
:10153000B7018C2F0E946B11019781F3F2CFCF93EB
:10154000DF93D82FC92F0E94760A6D2F7C2F0E941F
:101550006B11DF91CF9108951F93CF93DF93162FD7
:10156000D72F9091AD01992341F0862F972F0E949C
:101570009F0ADF91CF911F910895882381F0862FD4
:10158000972F0E94760AC82F682F812F9D2F0E94C7
:10159000530A612F7D2F8C2F0E946B11EACF862F6B
:1015A000972F0E94640AC82FF4CFE1E0F0E0DF013A
:1015B00002C0AA0FBB1F6A95E2F7BD01DF0102C09E
:1015C000AA0FBB1F4A95E2F76A2B01C0EE0F2A95BE
:1015D000EAF7962F9823961302C08E2B0895E09574
:1015E0008E230895242F462F682F8091CC010E94CE
:1015F000D50A0E94AF0908950F931F93CF93E091EE
:10160000CE01C7E08091CF018E1304C0CF911F910E
:101610000F9108950E2F10E0CE9FF0011124E0539A
:10162000FE4F2081318142815381648175818681A1
:101630000E948009F8013196E770E4CF20910802FA
:101640003091090240910A0250910B0260910C0204
:1016500070910D0280910E020E9480090895809180
:101660000E02803178F480910D02882359F0E091C8
:10167000CE012091CF01309109024091080257E03C
:101680002E1301C008956E2F70E05E9FF0011124AB
:10169000DF01A053BE4F14968C911497882361F1FB
:1016A00011968C911197831327C08C91841324C0B9
:1016B00015968C91159781111FC012968D919C9152
:1016C000A0910A02B0910B028A1B9B0B883C9105EA
:1016D00098F480910E028F70806180930E02EA521E
:1016E000FE4F80818F708061808388E092E00E944D
:1016F0000E090E94FC0A0895FB013196E770C0CFE5
:10170000E091CE019091CF0127E0E91302C080E083
:101710000895AE2FB0E02E9FF0011124E053FE4F4C
:101720003181361306C03081381303C0358134133C
:1017300004C0FD013196E770E8CF81E008958F92F3
:101740009F92AF92BF92DF92EF92FF920F931F93FF
:10175000CF93DF93CDB7DEB72D970FB6F894DEBFEA
:101760000FBECDBF8C0186E0F801DE011896019016
:101770000D928A95E1F7F801E080F580A280B380B0
:10178000848198E0892E92E0992E90910C0291111B
:101790001BC0882309F4FCC0FF2009F43DC1C80127
:1017A0000E946909882309F437C187E0F801D40150
:1017B00001900D928A95E1F7C4010E94D6050E941E
:1017C0002F0B0E941E0BE4C0D0900D0220910A0244
:1017D00030910B02A501421B530BDD2009F4DBC045
:1017E000483C510508F0A6C0882309F4D1C0909167
:1017F0000902918080910E02803108F06BC099122D
:1018000028C0909108029E1124C0F1105DC08F7015
:10181000806180930E020E941E0B88E092E00E947D
:101820000E0980910E02F8018683F12C8F2D2D96E2
:101830000FB6F894DEBF0FBECDBFDF91CF911F91E1
:101840000F91FF90EF90DF90BF90AF909F908F909F
:101850000895F11039C040E0692D8E2D0E94800B53
:1018600040E0692D8E2D0E94800BF82E8111DDCF76
:10187000888599850E949F0A292F22952F70903480
:1018800050F49F70223080F0992399F0F8019681EE
:10189000903178F4CBCF2A5F2F70223078F0C801D6
:1018A0000E940E09FD2CC2CF992319F0882309F458
:1018B000BDCF805E883008F4B9CFF1CF803F08F407
:1018C000B5CF815F8230F7CF80910E028160809327
:1018D0000E02ABCF991207C0909108029E1103C06F
:1018E000FF2009F479C0C8010E946909882309F41E
:1018F00093C0FF2009F490C080910E02803288F0DE
:1019000020910802309109023A832983BC82AB827C
:1019100090910C029D831E828F83CE0101960E94BE
:101920000E0987E0F801A8E0B2E001900D928A95D7
:10193000E1F745CF90910E029031A0F4488559858A
:101940006A857B858C859D850E94760988E092E07A
:101950000E940E0987E0F40111928A95E9F70E942E
:101960001E0B63CF8823A1F02091090281812813E7
:10197000BACF809108028E11B6CFF110B4CF968302
:10198000C8010E940E0987E0F40111928A95E9F7D7
:10199000FF24F3944BCF483C510508F041C0882305
:1019A000B9F3FF20C9F190910902818198132AC0EF
:1019B000809108028E1126C080910E0280FD19C010
:1019C0008031B8F08683807F803F39F08681982F00
:1019D000907F905F8F70892B8683C8010E940E09CB
:1019E00087E0F801A8E0B2E001900D928A95E1F756
:1019F000E8CE87E0F801A8E0B2E001900D928A9568
:101A0000E1F7C6CFC8010E94690981118ACF809190
:101A10000E02816080930E02C8010E940E09B8CFA9
:101A2000488559856A857B858C859D850E947609C8
:101A300091CFAEE0B0E0EFE1FDE00C94892528877E
:101A400039874A875B876C877D878E87CE010896AA
:101A50000E949F0B8823B1F06C85662341F0288596
:101A600039854A855B857D858E850E94800917E0D2
:101A70008091CE019091CF0189133EC02E96E3E074
:101A80000C94A52587E0FE013896DE0111960190A1
:101A90000D928A95E1F72091CF014091CE018C857E
:101AA000882329F330E0C90101968770992750E017
:101AB0008417950799F097E0929FD001939FB00DFE
:101AC0001124A053BE4FFE01319601900D929A95BC
:101AD000E1F78093CF010E94FC0AC9CF0E94470919
:101AE0001092CF011092CE0187E0E8E0F2E0DF0132
:101AF0001D928A95E9F7BBCF189FC001112480532E
:101B00009E4F0E949F0B882309F4B8CFE091CE012D
:101B10001E9FF0011124E053FE4F2081318142814C
:101B200053816481758186810E9480098091CE01F4
:101B300090E00196877099278093CE0199CF80918C
:101B4000170286958695869508958091170287706D
:101B5000089590911702977081E0911101C080E083
:101B6000089580912302089590912302982B9093D9
:101B700023020895982F90958091230289238093C2
:101B80002302089510922302089590912202982B27
:101B9000909322020895982F909580912202892394
:101BA00080932202089510922202089508950E94BF
:101BB000D60D089590911802292F2823222331F061
:101BC00080958923809318020E94D70D0895089567
:101BD0000E94E70D089590911902292F28232817B4
:101BE00029F0982B909319020E94E80D0895909186
:101BF0001902292F2823222331F0809589238093ED
:101C000019020E94E80D089580911902882329F095
:101C10001092190280E00E94E80D08950F931F931F
:101C2000CF93DF930091000110910101C091230235
:101C300080912202C82BD0911902DD2331F00E943D
:101C40008F1C81110E94040ECD2BF801C083C0911E
:101C50000001D091010148E050E06FE072E0CE0158
:101C60000E94C525892B59F088E0FE01AFE0B2E063
:101C700001900D928A95E1F7CE010E94291CDF9117
:101C8000CF911F910F9108950E940E0E089508950F
:101C90000E94470E08959091600292FF11C098E053
:101CA000899F90011124622B609317020E94C10941
:101CB000809117028695869586950E94480E089514
:101CC0000E94C10908951092170280E00E94480EF8
:101CD0000895909117028095892380931702282FE9
:101CE000277021110DC0891759F09091600292FF61
:101CF00007C08695869586950E94CD090E94630E41
:101D000008959091600292FB222720F9281769F02C
:101D100080FB92F99093600280915F029091600243
:101D20000E94CA0E82E00E94690E089580916002AE
:101D300082FB882780F991E089270E94810E08950F
:101D400081E00E94810E089580E00E94810E089536
:101D50006FEF7FEF80E090E00E941726089580E00B
:101D600090E00E94E325863E9E4F19F40E944D1A92
:101D7000089580E0089582E090E00E94DB250895B8
:101D800083E090E00E94DB25089584E090E00E94CB
:101D9000E3250895BC0184E090E00E941726089591
:101DA000AB01BC018FE090E00E940B260895AB01CF
:101DB000BC0183E190E00E940B26089560E070E092
:101DC000CB010E94D70E089560E070E0CB010E9425
:101DD000D00E0E94DE0E0895A8E0B0E0E2EFFEE033
:101DE0000C948A2566EE7EEF80E090E00E94172634
:101DF00060E082E090E00E94F92581E08093CD01CF
:101E000061E083E090E00E94F92560E074E184E005
:101E100090E00E94172660E086E090E00E94F9259D
:101E200060E087E090E00E94F92540E050E0BA01D0
:101E300088E090E00E940B2660E084E290E00E943F
:101E4000F92560E087E190E00E94F92560E08CE0F0
:101E500090E00E94F92560E08DE090E00E94F92575
:101E600019821A821B821C821D821E821F82188682
:101E700048E050E068E170E0CE0101960E94E9255B
:101E800040E050E0BA0180E290E00E940B2680E042
:101E90000E94661A0E94A51A0E94E40E2896E2E0AB
:101EA0000C94A6250E94EC0E0895682F8EE090E019
:101EB0000E94F9250895A6E0B0E0E1E6FFE00C9469
:101EC00088250E94C91D8C018091240290912502D1
:101ED0008017910779F019821A820E94C91DBC01EE
:101EE00049815A8180E090E00E94A6051093250266
:101EF000009324022696E4E00C94A4250E94D51DAC
:101F000060933402709335028093360290933702C7
:101F100060933002709331028093320290933302C7
:101F20000895089508950E94910F089508950E94BC
:101F3000960F089583E692E10E94FC120E94920F90
:101F40000E94930F089581E008950E94A30F0895C1
:101F50000E94A30F0895089508950E94AB0F0E9458
:101F6000AC0F08950E94AF0E811102C00E94520F63
:101F70000E94BB0E809338020E94C50E90936002AF
:101F800080935F020E941F130E94C00E0E9494095A
:101F90008091CC010E94AC0908950E94C01D0E944E
:101FA000B51A0E9478120E94B20F0E947A050E9410
:101FB000970F0895A6E0B0E0E0EEFFE00C948125D5
:101FC0000E94A50F81110AC00E945B0F0E94631737
:101FD0000E948D052696EBE00C949D250E948E12A2
:101FE00086E2A82E82E0B82E750110E0F70101917B
:101FF0007F01812F0E946D121F5F1A3009F443C0C8
:102000000817A1F38091380281FD0E9473120E948B
:10201000A80FC82E00E099249394802F0E946D127F
:10202000182FF50191915F01891739F1D82ED92622
:10203000F12CEE24E3948D2D8E218823B1F0CC2059
:10204000A1F0F9820A830E94C91D9C838B839D8223
:1020500091E0812F8E21811101C090E049815A8148
:102060006B817C818D810E94A605F394EE0CF8E0D3
:10207000FF12E1CFF501319710830F5F0A3069F647
:102080000E947E0FA3CF0813BDCF9ECF1F93CF9387
:10209000DF930E947011EC01811522E5920708F090
:1020A00053C0811540E5940708F0DDC0803E9105DE
:1020B000F8F48D3C910508F0AEC0883A910580F4A3
:1020C000853A910508F099C08130910521F0049777
:1020D000813A910550F4CE01DF91CF911F9108957F
:1020E000885A91094B9708F48BC0C0E0D0E0F3CF39
:1020F000811550E49507F8F4C11580E2D80708F07F
:10210000CBC0C83ED10538F3CE019A9581159F41C9
:1021100060F78D2F0E941412182FCE0199270E946C
:102120007011212F30E0322F2227E901CC27DF71F7
:10213000C82BD92BD0CF99270E947011CC27DF70E4
:10214000C82BD92BD06AC7CF803842E59407C8F591
:10215000803652E5950708F067C0C03482E5D8079D
:10216000B0F08C2F86958695877020E2829FC00103
:102170001124C37021E030E0A90102C0440F551FB3
:10218000CA95E2F7EA01C82BD92BDC68A4CFC0328C
:1021900052E5D50708F041C08C2F8695869520E240
:1021A000829FC0011124C37021E030E0A90102C068
:1021B000440F551FCA95E2F7EA01C82BD92BDD68F9
:1021C0008ACF803C52E5950760F48F71C03AD245C2
:1021D00008F03FC090E0982F8827EC01C46FD06AC8
:1021E0007ACF805C9245809708F07FCFDC2FCC2798
:1021F000CC27DF71C06FD06A6ECFA497D0646BCF4D
:10220000C85AD0E0CC0FDD1FC05ADE4F0990D881EC
:10221000C02DD46460CFD0655ECFCF71D0E0DC2F0D
:10222000CC27C16FD06A57CF86958695877020E2FC
:10223000829FC0011124C37021E030E0A90102C0D7
:10224000440F551FCA95E2F7EA01C82BD92BDA686B
:1022500042CF0E941412C82FD0E0DC2FCC27CC270D
:10226000DF71D06238CF8F710E94141265E0D6956D
:10227000C7956A95E1F7CF70D0E0DC2FCC27282FE7
:1022800030E084FF05C054E0220F331F5A95E1F778
:10229000C22BD32BD0691FCF8D2F8F710E941412A8
:1022A000182FCE0199270E947011212F30E0322F74
:1022B000222722273F71282B392BE901D2CF462F25
:1022C000672F7A3028F4483018F40E94D413089508
:1022D00080E090E008950E945F110E9446100895EA
:1022E000803E9105D1F1C8F48133910509F47FC096
:1022F00048F48932910509F46FC08A32910509F4D6
:102300007DC0089589339105E1F082389105C9F0C7
:102310008533910509F45BC00895843E9105D1F1A0
:1023200048F4823E910531F1833E910541F181EE01
:1023300090E00895863E9105C1F1873E9105E1F157
:10234000089520915F022370211165C020916002E1
:1023500023FF14C089E290E0089520915F0220FDE0
:1023600043C03091600230FF09C024FF4EC080E0BE
:1023700090E0089520915F0222FDF7CF089520910B
:102380005F0222FD45C03091600230FD44C024FF51
:10239000F5CFEDCF2091600221FFF0CF80915F0259
:1023A00084FDE5CF87EE90E0089520915F0223FF42
:1023B000E5CF24FDDCCFF6CF20915F0223FD2EC0B8
:1023C0003091600231FFE3CF84EE90E008952091D8
:1023D0005F0225FFD3CFBECF20915F0225FD21C034
:1023E0002091600223FFCACF89E390E008952091F5
:1023F0005F0226FFC3CF8AE290E0089520915F023A
:1024000026FFBCCF81E390E0089583EE90E008952D
:1024100082EE90E0089580EE90E0089586EE90E0E0
:10242000089585E390E0AACF90915F0292FF10C0DB
:1024300041E0282F2471243009F040E031E0282FBA
:102440002871283009F030E0431711F02CE0822782
:1024500093FF10C041E0282F2471243109F040E09F
:1024600031E0282F2871283109F030E0431711F0AE
:102470002CE082273091600230FF10C051E0282FFD
:102480002171213009F050E041E0282F28712830D7
:1024900009F040E0541711F029E0822731FF10C005
:1024A00041E0282F2171213109F040E031E0282F4F
:1024B0002871283109F030E0431711F029E0822714
:1024C00094FD877E089580E0089508950E94651226
:1024D000089508950E9469120895E82FF0E0E559E3
:1024E000FD4F80810895089580EA8A95F1F7089557
:1024F0000E94CF028AE0E1E6F2E0DF01982F1D9210
:102500009A95E9F7EBE6F2E0DF011D928A95E9F78B
:102510008AE00E94A1120E9466120895CF9381E67C
:1025200092E00E946A03282F4AE06BE672E081E69F
:1025300092E00E94A212C82F0E946A128C2FCF91A3
:1025400008950895A0E0B0E0E8EAF2E10C94842553
:10255000D82EE92EF62ED72F042FC22F222379F062
:1025600081E080933B020E94C91D90933A028093C0
:10257000390280E0CDB7DEB7E8E00C94A025C0902A
:102580003B02CC20B1F38091390290913A020E9433
:10259000F21D059770F310E0A8016D2D7E2D8F2D93
:1025A0009D2F0E94C525892B41F0A8016D2D7E2D00
:1025B0008F2D9D2F0E94D225CC2D10923B028C2F67
:1025C000D9CF0E94B31F0E94CD0F0E94C01F089553
:1025D0000E94C51F0E94DA0F0E94DF1F08950E940B
:1025E000621D0E94991F0E949A0F0E94E1120E9490
:1025F000E8120E94AD0FFBCF9093A7018093A60134
:1026000008950E94A80E089580E00E946D128170C6
:1026100008950E948E122FEF86E791E021508040AE
:102620009040E1F700C000000E948E120E94041347
:10263000882321F00E9401130E94251E08950E9404
:102640000913089584E0089590E1699FB001112471
:1026500050E0440F551F640F751F90EA899F600D6D
:10266000711D1124CB01899608950F931F93CF9369
:10267000DF938430C8F46A30B8F44830A8F40E947C
:1026800024138C010E94DB25C82FD0E0DC2FCC273F
:10269000C80101960E94DB259E01282BC901DF910C
:1026A000CF911F910F91089580E090E0F8CF0F93A4
:1026B0001F93CF93DF93122F032F843078F46A3067
:1026C00068F4483058F40E942413EC01602F0E94F3
:1026D000F925612FCE0101960E94F925DF91CF9156
:1026E0001F910F9108951F93CF93DF93D0E0C0E027
:1026F00011C0412F6C2F8D2F0E9454049C01412F3B
:102700006C2F8D2F0E9457131F5F183091F7CF5FEA
:10271000CA3011F010E0EDCFDF5FD43041F7DF9128
:10272000CF911F910895EF92FF920F931F93CF9334
:10273000DF938C01EA017A01E60EF71ECE15DF0564
:1027400029F4CDB7DEB7E6E00C94A225003882E08C
:10275000180740F4C80189960E94DB2589930F5F12
:102760001F4FECCF80E0FACFEF92FF920F931F93B1
:10277000CF93DF938C01EA017A01E60EF71ECE15A6
:10278000DF0529F4CDB7DEB7E6E00C94A2250038CA
:1027900082E0180728F46881C80189960E94F9250B
:1027A00021960F5F1F4FEBCF843038F46A3028F446
:1027B000483018F40E943513089580E090E00895A1
:1027C00080E1089587E591E00895EF92FF920F93DD
:1027D0001F93CF93DF938C01EA017A01E60EF71E77
:1027E000CE15DF0529F4CDB7DEB7E6E00C94A225BF
:1027F000073581E0180748F4C80187559D4F0E94AE
:10280000DB2589930F5F1F4FEBCF80E0FACFEF926C
:10281000FF920F931F93CF93DF938C01EA017A010C
:10282000E60EF71ECE15DF0529F4CDB7DEB7E6E0DC
:102830000C94A225073581E0180730F46881C8019F
:1028400087559D4F0E94F92521960F5F1F4FEACFB4
:10285000CF93DF93C9EAD2E060E0CE010E94F92570
:102860002196C11584E0D807B9F7DF91CF9108957B
:10287000A8E0B0E0EEE3F4E10C948425F82E2FE01C
:10288000281708F46FC08FEF93E00E94DB258111B9
:1028900069C009EA12E0F11038C01A821982FE01FB
:1028A000339686E0DF011D928A95E9F76801BFEF54
:1028B000CB1ADB0AC8010E94DB2589831A82882390
:1028C00009F450C08130D1F4780122E0E20EF11C0D
:1028D000C6010E94DB258A83882309F443C09FEF49
:1028E000980F9330F8F4680183E0C80ED11CC7013B
:1028F0000E94DB258B838823A9F11C8260E0CE0136
:1029000001960E94F7188601D1CF011584E01807BF
:1029100049F1C8010E94DB250F5F1F4F8111F5CFE0
:10292000FA94B9CF8430B9F402E010E0C701AFEFF8
:10293000EA1AFA0A0E94DB25E1E0F0E0EC0FFD1F45
:10294000E00FF11F8083882369F08C3731F4FE019A
:10295000E00FF11F12826701D1CF0F5F1F4F0730C9
:10296000110521F72896E8E00C94A025CF93DF937A
:10297000EB0186319C4719F50E94B10D9D81992389
:10298000A1F08A7A91E0811101C090E090933C021D
:10299000882349F085E30E94E01C0E94440E80E0F9
:1029A000DF91CF91089589E2F6CF80913C02882390
:1029B00021F085E30E94E81CF0CF89E2FBCF81E0A3
:1029C000EFCFCF93DF93EC01FB018581882309F4DE
:1029D000D2C09E0130572332310508F0B2C00E94A8
:1029E000C50E9093600280935F02FE01E150F047B4
:1029F000E232F10520F4E55CF94D0C946D258091EF
:102A00005F02816080935F0293C080916002886062
:102A1000809360028DC080915F028260F3CF8091CD
:102A20005F028460EFCF80915F028860EBCF80917E
:102A300060028160EDCF809160028260E9CF809179
:102A40005F028061DFCF80915F028062DBCF809187
:102A50005F028064D7CF0E94470980915F0280683F
:102A6000D1CF80915F028C60CDCF80916002836076
:102A7000CFCF80915F028E7FC5CF80916002877F2C
:102A8000C7CF80915F028D7FBDCF80915F028B7F2A
:102A9000B9CF80915F02877FB5CF809160028E7F32
:102AA000B7CF809160028D7FB3CF80915F028F7E20
:102AB000A9CF80915F028F7DA5CF80915F028F7B30
:102AC000A1CF0E94470980915F028F779BCF8091B1
:102AD0005F02837F97CF809160028C7F99CF809136
:102AE0005F0282FB992790F921E0922790FB82F9FF
:102AF00090FB83F987CF80916002982F9095917019
:102B00008E7F892B90FB81F983CF90915F02892F73
:102B10008F7B96FF806476CF0E94470990915F0279
:102B2000892F97FB87F980586DCF81E00E94550F60
:102B300080915F02909160020E94CA0E0E94470934
:102B400080E0DF91CF91089580E0F0CF90915F0217
:102B5000892F8F7E94FF806155CF90915F02892FDE
:102B60008E7F90FF81604ECF90916002892F877F8A
:102B700093FF88604DCF81E0E4CF282F35EB23030E
:102B8000C001112497FF04C080589109892F08952E
:102B900080589F4FFBCF8091430280FF0DC0609112
:102BA000070170E0660F771F60387105C0F5611589
:102BB0007105B9F1862F089581FF07C06091070163
:102BC00084E0689FB0011124EFCF82FF04C06091C0
:102BD000070188E0F6CF809142028823E9F09091C6
:102BE00006016091070170E0891730F093E0660FED
:102BF000771F9A95E1F7D8CF869F9001879F300D78
:102C0000112483E0220F331F8A95E1F7692F70E0CA
:102C1000C9010E945925C8CF68E070E0CBCF8FE78B
:102C2000089581E008958091430280FF0CC0609177
:102C3000030170E075956795759567956115710548
:102C400061F1862F089581FF06C06091030170E055
:102C500075956795F3CF6091030170E082FD15C013
:102C6000209141022223B1F0909102016091030171
:102C700070E0291750F4269FA001279F500D1124C2
:102C8000692F70E0CA010E94592560387105B0F2C1
:102C90008FE7089561E070E0D4CF81E008959091CE
:102CA000460220914702922B20914902922B2091BB
:102CB0004802922B992331F098E09093420291E0E0
:102CC000909341028D3C31F40E94CB158195809305
:102CD00047020895E2E3E80FE231B0F5F0E0E35A8D
:102CE000F94D0C946D250E94CB15F1CF0E94CB15A8
:102CF00081958093460208950E94CB15FACF0E94D9
:102D000013168093480208950E9413168195F9CFF7
:102D10000E94131681958093490208950E9413160C
:102D2000FACF815D990B21E030E001C0220F8A9536
:102D3000EAF780914502822B8093450208958091A5
:102D40004302816080934302089580914302826030
:102D5000F9CF809143028460F5CF409146028D3CCB
:102D600059F48091470287FF0DC010924702442317
:102D700059F41092420208C08E3C81F480914702BF
:102D800018169CF3442381F08091480290914902E7
:102D9000892B811159C01092410208958F3C41F452
:102DA00047FFF0CF10924602809147028823E0CF80
:102DB000803D19F41416B4F3E5CF90914802893D93
:102DC00029F41916FCF610924802DCCF8A3D19F45A
:102DD00097FFD8CFF8CF909149028B3D29F497FF08
:102DE000D1CF10924902CECF8C3D19F41916CCF3F5
:102DF000C9CF9FE2980F983090F4815D990B21E044
:102E000030E0B90102C0660F771F8A95E2F7CB0167
:102E1000809590914502892380934502B3CF8D3DE3
:102E200031F4809143028E7F80934302ABCF8E3D7D
:102E300021F4809143028D7FF7CF8F3D09F0A2CF1F
:102E4000809143028B7FF0CF08950E94C91D20918D
:102E5000460230914702232B222321F080933F0228
:102E6000909340022091480230914902232B222363
:102E700021F080933D0290933E0284E492E00E9410
:102E8000341C089586E0E4E4F2E0DF011D928A95A7
:102E9000E9F7109242021092410210924302089503
:102EA000FC01828181110DC0838181110AC084815E
:102EB000811107C081E09581911101C080E081708E
:102EC000089581E0FCCFA6E0B0E0E9E6F7E10C94DC
:102ED000872586E0E4E4F2E09E012F5F3F4FD901B1
:102EE00001900D928A95E1F71092460210924702E6
:102EF00010924802109249028B819C81892B890192
:102F0000882391F080913F02909140020E94F21D2F
:102F10009C01809142028823C9F14091080150E050
:102F20004217530708F43FC08D819E81892B882367
:102F300099F080913D0290913E020E94F21D9C0109
:102F400080914102882309F467C04091040150E058
:102F50004217530708F46EC0B80184E492E00E945F
:102F6000FB1C811105C084E492E00E94501781117E
:102F70000E94251786E0F801A4E4B2E001900D92CA
:102F80008A95E1F72696E5E00C94A3254091090186
:102F90009AE0499FA00111244217530728F68F5F3A
:102FA0008093420202C08F3FD1F7FB80FF2059F08F
:102FB0000E94CB1591E01F140CF09FEF899F802D8C
:102FC000112480934602FC80FF2059F00E94CB150B
:102FD00091E01F140CF09FEF899F802D11248093A6
:102FE000470280914602882309F49ECFF090470261
:102FF000FF2009F499CF0E94BD15811101C081E025
:10300000809346028F2D0E94BD15882319F080936E
:1030100047028ACF81E0FBCF409105019AE0499FAA
:10302000A00111244217530708F096CF8F5F8093B9
:10303000410202C08F3FD1F7FD80FF2059F00E946E
:10304000131691E01F140CF09FEF899F802D11241F
:1030500080934802FE80FF2059F00E94131691E0F1
:103060001F140CF09FEF899F802D1124809349023B
:1030700080914802882309F46FCFF0904902FF2025
:1030800009F46ACF0E94BD15811101C081E08093CF
:1030900048028F2D0E94BD15882319F080934902A4
:1030A0005BCF81E0FBCFA0E0B0E0E9E5F8E10C9474
:1030B0008325E82FF0E0E45DFC4FB490282F26959F
:1030C0002695269530E0F901E453FC4F0491877072
:1030D00010E0082E02C0159507950A94E2F70170DA
:1030E0001127F901E454FC4FE490F12C082E02C0A2
:1030F000F594E7940A94E2F791E0E922FF24F901BC
:10310000E455FC4FC491D0E002C0D595C7958A958F
:10311000E2F7C170DD27C62ED12C0115110549F546
:10312000E114F10431F086EE0E94E905C601009732
:1031300071F5B6018B2D0E94D006C601009779F576
:10314000E114F104A1F50115110531F081EE0E94A1
:103150007606C6010097C9F5CD2B31F08CE20E94AE
:10316000E806C114D104C9F5CDB7DEB7E9E00C9487
:103170009F2581EE0E94E905C601009789F2EFE9DB
:10318000FFE03197F1F700C000000197F6CFEFE9BB
:10319000FFE03197F1F700C000000197C8CFEFE9D9
:1031A000FFE03197F1F700C000000197C7CF86EE2E
:1031B0000E947606C601009731F2EFE9FFE03197F1
:1031C000F1F700C000000197F6CFEFE9FFE031977B
:1031D000F1F700C000000197BDCF8FE99FE0019794
:1031E000F1F700C0000091E0C91AD108BACFEF9200
:1031F000FF921F93CF93DF93EC01162F88818823D2
:1032000009F45AC0813009F053C08981813071F4CA
:103210007E0182E0E80EF11C8A810E94E806E70147
:10322000812F90E00097E1F52196E8CF823041F4BC
:103230007E01E2E0EE0EF11C8A810E94E905EFCFEB
:10324000833041F47E01F2E0EF0EF11C8A810E948E
:103250007606E5CF843011F02196E2CF2A812296BE
:1032600080E090E06AE0AE014F5F5F4F2053330B88
:103270002A30310550F0009799F2EFE9FFE03197DD
:10328000F1F700C000000197F6CF689FF001699F39
:10329000F00D1124C9018E0F9F1F2981EA01E3CF90
:1032A000EFE9FFE03197F1F700C000000197BACFD6
:1032B000612F0E945318B8CFDF91CF911F91FF90DB
:1032C000EF9008950F931F93CF93DF93C42FD22FC6
:1032D000FC0185818823C9F040934C020E94C91DDE
:1032E00090934B0280934A0280E28C0F883040F426
:1032F000C77081E001C0880FCA95EAF70E94F10605
:10330000DF91CF911F910F91089510914C021413EA
:103310003CC080914A0290914B020E94F21D883C71
:10332000910598F5C0E2CD0F1D1741F180E2810FA4
:10333000883040F4177081E001C0880F1A95EAF7D1
:103340000E94F806C83020F0802F0E94E806D8CFEF
:1033500091E08D2F877001C0990F8A95EAF7892F28
:103360000E94F106802F0E94E806D77081E001C01C
:10337000880FDA95EAF70E94F806C2CF802F0E94E4
:10338000E806C83008F0BCCFF0CF80E28C0F883060
:1033900008F0B6CFC77081E001C0880FCA95EAF780
:1033A000EACF0F93FC01CB01E851FC47E730F10570
:1033B00090F5E159F94D0C946D2506E221EE41EEB0
:1033C0006AE17CE70E94621980E00F91089507E2AC
:1033D00025EE45EE6BE17CE7F5CF06E221EE40EE0F
:1033E00068E17CE7EFCF07E225EE44EE69E17CE798
:1033F000E9CF06E221EE42EE6CE17CE7E3CF07E2A3
:1034000025EE46EE6DE17CE7DDCF08E221E045EEFA
:103410006EE17CE7D7CFFB018581811110924C02D0
:1034200081E0D3CFCF93DF939C01FB0127378CE75B
:10343000380739F028373C47F1F081E0DF91CF9130
:1034400008958581882391F00E94441A0E94C10941
:103450000E944A1AD82F0E94471AC82F0E94441A65
:103460004D2F6C2F0E94F20A80E0E8CF0E94441A90
:103470000E94CD09EDCF8581882319F00E94471A5B
:10348000E5CF0E94471AF4CF80910C0108958091F6
:103490000B01089580910A01089585E290E00E9451
:1034A000DB25843289F486E290E00E94DB258330BC
:1034B00059F487E290E00E94DB2591E0833109F026
:1034C00090E0892F8170089580E0FCCF882381F0FF
:1034D00064E285E290E00E94F92563E086E290E0F4
:1034E0000E94F92563E187E290E00E94F9250895A2
:1034F0006FEF85E290E00E94F9256FEF86E290E0A1
:103500000E94F9256FEFEFCF0895A4E0B0E0EBE85B
:10351000FAE10C948A2588E290E00E94DB25282FAE
:1035200030E040E050E0CA01B9012496E2E00C949A
:10353000A6250895CF93C62F0E94991A6C2F88E272
:1035400090E00E94F925CF91089580E00E94661ACC
:1035500060E070E0CB010E949A1A0E9473130E94EF
:10356000281481E00E94661A08950E94841A0E941D
:10357000851A0E94991A0E944D1A811102C00E9458
:10358000A51A089508959C01FB018581882351F0B7
:10359000A90157574038510530F4822F0E94381442
:1035A00080E0089581E008952FEFFC0120830895C5
:1035B0000E94D41A089580E00895CF92DF92FF927E
:1035C0000F931F93CF93DF93CDB7DEB72E970FB630
:1035D000F894DEBF0FBECDBF8D839E83F62E8D8106
:1035E0009E810E94DB1A811115C0AD81BE81EC91D4
:1035F000E150E33140F5F0E0EA58F94D0C946D25C7
:10360000ED81FE8111828CE082836F2D8D819E8100
:103610000E948E1E2E960FB6F894DEBF0FBECDBF51
:10362000DF91CF911F910F91FF90DF90CF90089580
:10363000AD81BE8111968C91833099F148F481302F
:1036400081F08230E9F08FEFAD81BE818C93DDCFC8
:103650008430C9F7ED81FE811282138214821582B3
:10366000D4CF0E94D51D0E9473256F8378878987E8
:103670009A87ED81FE816283738384839583C5CFAE
:103680000E94851A0E9473256B877C878D879E8791
:10369000AD81BE8112966D937D938D939C9315970A
:1036A000B4CFED81FE81028110E06F01F3E0CF0E17
:1036B000D11C0A3011050CF0A8CF802F0E946D128A
:1036C000D6018D936D010F5F1F4FF3CFED81FE810A
:1036D0008181823049F0853009F0B5CFED81FE81DE
:1036E00082810E94C21A91CFAD81BE8112968D91C6
:1036F0009D910D90BC91A02D89839A83AB83BC834F
:10370000BC01CD010E9473250E949A1A7ECFAD8123
:10371000BE8113964C91139712966C911297119645
:103720008C910E943513982789279827ED81FE8177
:10373000958384836ACFAD81BE8114962D913C918F
:10374000159732272327322713964C9113971296F9
:103750006C91129711968C910E94571356CF0E942C
:10376000731353CF6F2D8D819E810E94D81A4DCF38
:103770000E94E013ED81FE81818347CF0E94E21316
:10378000982789279827AD81BE8112969C938E93A6
:1037900011973BCFED81FE81638170E08181928141
:1037A000AF014C5F5F4F9827892798270E94E51348
:1037B0002CCFAD81BE8113966C91139770E011965A
:1037C0008D919C911297AD014C5F5F4F982789278F
:1037D00098270E94071419CF0E94281416CF0E9420
:1037E0002213C8CFAD81BE8113966C91139770E000
:1037F00011968D919C911297AD014C5F5F4F982768
:10380000892798270E94931300CFED81FE81638161
:1038100070E081819281AF014C5F5F4F98278927CB
:1038200098270E94B413F1CE9093520280935102D4
:103830000895E0915102F0915202309729F00190E1
:10384000F081E02D0995089580E008950E94191CEB
:103850000895E0915102F0915202309721F00280D8
:10386000F381E02D09950895DC01E0915102F0917A
:103870005202309739F082E08C930680F781E02D78
:10388000CD0109950895A3E0B0E0E9E4FCE10C94D2
:103890008A259C0180914F029091500282179307D4
:1038A000A1F03093500220934F02E0915102F09129
:1038B0005202309751F083E089833B832A8300844E
:1038C000F185E02DCE01019609952396E2E00C9456
:1038D000A625A3E0B0E0EFE6FCE10C948A259C016C
:1038E00080914D0290914E0282179307A1F0309380
:1038F0004E0220934D02E0915102F0915202309716
:1039000051F084E089833B832A830084F185E02D94
:10391000CE01019609952396E2E00C94A6254091EC
:103920000001509101019A012E5F3F4F485F5F4FA8
:1039300080E0F90190812F5F3F4F91118F5F421717
:103940005307B9F70895882371F020910001309151
:103950000101F9013296285F3F4F9191981729F0A4
:10396000E217F307D1F780E0089581E008959C0104
:10397000FC0132968FEF90E04191461751F08F3F56
:1039800019F4411101C0892F9F5F9630A9F78F3F2D
:1039900009F40895280F311D87FD3A95F9016283D6
:1039A00008959C01FC013296285F3F4F8191861358
:1039B00003C0DF0111971C92E217F307B9F70895CE
:1039C000682F80910001909101010E94B71C089519
:1039D000682F80910001909101010E94D11C0895EF
:1039E000E0910001F0910101329686E0DF011D9225
:1039F0008A95E9F70895DC01FB0111969C911197D6
:103A00008181981322C012968C911297882319F005
:103A1000928189131AC013968C911397882319F0F9
:103A20009381891312C015968C911597882319F0EC
:103A3000958189130AC014969C91992321F081E005
:103A40002481291303C080E001C081E081700895C2
:103A500008950E94281D08958F5F809353020E944D
:103A6000291D089583E0809353020E94291D089523
:103A70000E942C1D089581E0809353020E94291D0D
:103A800008950E943B1D0895089508950E94451DC4
:103A90000895089508950E94441D0895CF930E94AB
:103AA000491D0E948E120E944A1DC0E08C2F0E9468
:103AB0006D12811105C0CF5FCA30C1F7CF91089553
:103AC00081E0FCCF85B7806885BF85B7806885BFFA
:103AD00008951F921FB61F9211248F939F93AF9347
:103AE000BF9380915402811113C08091750290910F
:103AF0007602A0917702B09178024196A11DB11D86
:103B00008093750290937602A0937702B093780227
:103B1000BF91AF919F918F911F901FBE1F901895DD
:103B200080917D02843031F10E945D051092540233
:103B300088E190E020E40FB6F894A89580936000A7
:103B40000FBE2093600083B7817F846083BF83B7FB
:103B5000816083BF7894889583B78E7F83BF0FB6CB
:103B6000F894A8958091600088618093600010921D
:103B700060000FBE08950E9447090E9462050895E3
:103B800082E084BD93E095BD9AEF97BD80936E006F
:103B900008952FB7F8948091750290917602A091C4
:103BA0007702B09178022FBF0895A4E0B0E0EBED6A
:103BB000FDE10C948A258FB7F8942091750230911D
:103BC0007602409177025091780229833A834B83A1
:103BD0005C838FBF69817A818B819C812496E2E02E
:103BE0000C94A6259C014FB7F89480917502909192
:103BF0007602A0917702B09178024FBF821B930B9F
:103C0000089578941F921FB61F9211248F939F934B
:103C1000AF93BF938091750290917602A091770245
:103C2000B09178020196A11DB11D80937502909309
:103C30007602A0937702B0937802BF91AF919F91E3
:103C40008F911F901FBE1F90189587E797E790935D
:103C500001088093000888E19AE00FB6F894A895CF
:103C6000809360000FBE90936000FFCF88E19AE0E0
:103C70000FB6F894A895809360000FBE90936000F3
:103C8000FFCF80915D0208950895282FCB01BA01DE
:103C900030917D023430E1F42F702093E9002FEF52
:103CA0003091E80035FD07C035ED3A95F1F7000099
:103CB00021502111F5CF2091E80025FF09C040E0F7
:103CC00050E00E9488208091E8008E778093E80081
:103CD0000895BC0143E050E084E00E94451E089531
:103CE000BC0146E050E084E00E94451E0895CF9359
:103CF000DF93D82FC92F48E050E0682F792F81E05B
:103D00000E94451E88E0ED2FFC2FA5E5B2E0019052
:103D10000D928A95E1F7DF91CF910895792F603266
:103D200031F440E250E0682F82E00E94451E089581
:103D300080917C02811109C00E945F220E94BC22F6
:103D40008091E20084608093E200089510927C02EA
:103D500008950E943B1D08956091790281E06111F0
:103D600001C080E00E94321D089590917D0281E0A3
:103D7000943009F080E0609179020E94381D089526
:103D800042E061EC81E00E94DB2142E261EC84E0F0
:103D90000E94DB2142E261EC82E00E94DB2142E2F0
:103DA00060EC83E00E94DB2190917D0281E0943001
:103DB00009F080E0609179020E942C1D08958091A5
:103DC0007F02893089F148F4823009F4A1C0833040
:103DD00009F45BC0813041F008958A3009F488C04D
:103DE0008B3009F46DC0089580917E02813A09F00C
:103DF0004BC08091E800877F8093E8008091820229
:103E000090918302892B61F060E080E090E070E0A7
:103E10000E9426218091E8008B778093E800089526
:103E200068E085E592E0F3CF80917E02813261F512
:103E300080918202909183028D7F892B29F5809158
:103E4000E800877F8093E8008091E80082FF18C037
:103E50009091F3008091F200029731F48091F1008B
:103E6000813011F0863021F48091F10080935D0261
:103E70008091E8008B778093E8000E940F2204C0B5
:103E800080917D028111E0CF089580917E02813A78
:103E9000D9F78091820290918302892BA9F78091B2
:103EA000E800877F8093E8008091E80080FFFCCFE6
:103EB000809117018093F1008091E8008E77DBCF2D
:103EC00080917E02813201F780918202909183027B
:103ED000892BD1F68091E800877F8093E8000E94CB
:103EE0000F2280918002809317010E944709089554
:103EF00080917E02813241F68091E800877F809335
:103F0000E8000E940F228091810280935E02089552
:103F100080917E02813A09F0B7CF8091E800877FD7
:103F20008093E8008091E80080FFFCCF80915E02E2
:103F3000C1CF84B7877F84BF0FB6F894A8958091CE
:103F40006000886180936000109260000FBE80E87E
:103F500090E00FB6F89480936100909361000FBEDB
:103F60000E94411D08950E945F220E94BC22E2EE41
:103F7000F0E080818460808378940E943F250895DA
:103F80008DE091E00E94141C089580917D0285309F
:103F900031F480917D02853019F00E94BB1D089597
:103FA0000E94901D80917B02882399F30E944E1DF0
:103FB000882379F30E9472200E944709EACFA0E289
:103FC000B0E0E5EEFFE10C948A2580917D0284301B
:103FD00081F483E08093E9008091E80082FF09C0CA
:103FE0008091E80085FD09C08091E8008B7780937F
:103FF000E800A096E2E00C94A62540E050E060E2E4
:1040000070E0CE0101960E94D7208091E8008B7766
:104010008093E80060E2CE0101960E94DD1AE9CFAC
:104020009A0140918402509185020E9418200895BF
:10403000AC01CB01D901252F33272330310521F1E4
:1040400068F42130310509F443C02230310509F408
:1040500044C080E090E020E030E024C0213231050F
:1040600051F122323105A9F78330910590F7FC0117
:10407000EE0FFF1FE756FE4F208131818A569E4F7B
:10408000FC01808190E00EC0CA019927413069F09F
:104090008230910569F0EEE0F4E0892BD1F684914D
:1040A00090E09F012D933C930895EEEFF3E0F7CF5E
:1040B000ECEDF3E0F4CF8330910558F6FC01EE0F00
:1040C000FF1FE156FE4F2081318189E090E0EACF69
:1040D00082E190E02DE634E0E5CF8BE590E022E14F
:1040E00034E0E0CF80E189BD82E189BD09B400FE02
:1040F000FDCF8091D8008F7D8093D8008091E00023
:1041000082608093E0008091E00081FDFCCF089503
:10411000AF92BF92CF92DF92FF920F931F93CF93F4
:10412000DF936C01EB018A010E942E22F82E81118F
:1041300023C00115110539F0F80180819181C81B58
:10414000D90BC80ED91EA12CB12C2097A9F08091B3
:10415000E80085FD22C08091E8008E778093E8001A
:1041600001151105A1F0F801808191818A0D9B1D37
:104170009183808385E0F82E8F2DDF91CF911F9161
:104180000F91FF90DF90CF90BF90AF9008950E9465
:104190002E228823E1F2F82EEFCFF60181916F01F4
:1041A0008093F1002197FFEFAF1ABF0ACECFAF92F5
:1041B000BF92CF92DF92FF920F931F93CF93DF9323
:1041C0006C01EB018A010E942E22F82E811123C07E
:1041D0000115110539F0F80180819181C81BD90BB7
:1041E000C80ED91EA12CB12C2097A9F08091E8000F
:1041F00085FD22C08091E8008B778093E80001154F
:104200001105A1F0F801808191818A0D9B1D918398
:10421000808385E0F82E8F2DDF91CF911F910F9134
:10422000FF90DF90CF90BF90AF9008950E942E2214
:104230008823E1F2F82EEFCF8091F100F60181930F
:104240006F012197FFEFAF1ABF0ACECFFC019B0190
:1042500080918402909185028617970718F0672B4A
:1042600061F0C90140E0009771F441110CC08091E8
:10427000E80082FF35C080E008958091E8008E77E5
:104280008093E800EECF20917D022223A9F1253012
:10429000A9F12091E80023FD2DC02091E80022FD26
:1042A000E6CF2091E80020FFDECF3091F30020918F
:1042B000F200009719F02830310558F041E028301D
:1042C000310509F040E02091E8002E772093E800C6
:1042D000CACF41914093F10001972F5F3F4FE9CF43
:1042E00080917D02882341F0853041F08091E80083
:1042F00083FFBDCF81E0089582E0089583E00895B3
:10430000FC019B018091840290918502861797079A
:1043100018F0672B61F0C90140E0009771F441117A
:104320000CC08091E80082FF36C080E00895809143
:10433000E8008E778093E800EECF20917D02222363
:10434000B1F12530B1F12091E80023FD2EC020917C
:10435000E80022FDE6CF2091E80020FFDECF30917B
:10436000F3002091F200009719F02830310558F041
:1043700041E02830310509F040E02091E8002E7737
:104380002093E800CACF44914093F1003196019701
:104390002F5F3F4FE8CF80917D02882341F0853029
:1043A00041F08091E80083FFBCCF81E0089582E076
:1043B000089583E00895982F973028F08F708093A8
:1043C000E90081E008959093E900242F762F50E0D2
:1043D000981731F07091EC002091ED005091F000B1
:1043E00021FD02C09F5FE8CF3091EB003E7F30930C
:1043F000EB003091ED003D7F3093ED003091EB000C
:1044000031603093EB007093EC002093ED005093FB
:10441000F0002091EE0027FDE5CF80E00895809127
:104420007E0287FF13C08091E80082FF06C0809162
:10443000E8008B778093E80004C080917D028111B1
:10444000F2CF089580917D028823D9F38091E8000E
:1044500080FFF8CF8091E8008E77ECCF2091E400C8
:104460003091E50095E6A9018091EC0081708823E8
:1044700031F08091E80080FF06C080E0089520912F
:10448000E80022FD1BC080917D02882391F08530D9
:1044900091F08091EB0085FD10C02091E4003091F7
:1044A000E5004217530701F391509111DCCF84E0EE
:1044B000089582E0089583E0089581E008950E94C0
:1044C000CE220E94D622E0EEF0E0808181608083DF
:1044D000E8EDF0E080818F77808319BCA7EDB0E034
:1044E0008C918E7F8C9380818F7E808310927C0252
:1044F00008950F931F93CF93DF930E94CE220E94C3
:10450000D622C8EDD0E088818F7788838881806843
:10451000888388818F7D888319BC10927D021092D8
:10452000790210927B0210927A0200EE10E0F801FC
:1045300080818B7F808388818160888342E060E016
:1045400080E00E94DB21E1EEF0E080818E7F8083BD
:10455000E2EEF0E0808181608083808188608083EA
:10456000F80180818E7F8083888180618883DF91DC
:10457000CF911F910F910895E8EDF0E080818F7E3B
:104580008083E7EDF0E080818160808384E082BFFA
:1045900081E080937C020E9479220895E8EDF0E0AA
:1045A00080818E7F80831092E20008951092DA005D
:1045B0001092E10008951F920F920FB60F921124EE
:1045C0002F933F934F935F936F937F938F939F931B
:1045D000AF93BF93EF93FF938091E10082FF0BC0F5
:1045E0008091E20082FF07C08091E1008B7F809381
:1045F000E1000E943E258091DA0080FF19C0809181
:10460000D80080FF15C08091DA008E7F8093DA0099
:104610008091D90080FF94C080E189BD82E189BD8D
:1046200009B400FEFDCF81E080937D020E94981EB8
:104630008091E10080FF19C08091E20080FF15C0E9
:104640008091E2008E7F8093E2008091E2008061A1
:104650008093E2008091D80080628093D80019BCDA
:1046600085E080937D020E94AC1E8091E10084FF72
:1046700029C08091E20084FF25C080E189BD82E1EC
:1046800089BD09B400FEFDCF8091D8008F7D809355
:10469000D8008091E1008F7E8093E1008091E2005C
:1046A0008F7E8093E2008091E20081608093E2003F
:1046B00080917902882309F449C084E080937D02C7
:1046C0000E94B51E8091E10083FF29C08091E20025
:1046D00083FF25C08091E100877F8093E10082E025
:1046E00080937D02109279028091E1008E7F809309
:1046F000E1008091E2008E7F8093E2008091E200F1
:1047000080618093E20042E060E080E00E94DB2173
:104710008091F00088608093F0000E94A91EFF91B4
:10472000EF91BF91AF919F918F917F916F915F9129
:104730004F913F912F910F900FBE0F901F901895A2
:1047400019BC10927D020E94A61E72CF8091E300D8
:1047500087FF02C083E0B2CF81E0B0CF1F920F92FB
:104760000FB60F921124FF920F931F932F933F9335
:104770004F935F936F937F938F939F93AF93BF9369
:10478000CF93DF93EF93FF9309EE10E0F801808160
:10479000C091EC00C795CC27C7958F70FC2EF82AE6
:1047A0001082C0EFD0E08881877F888378940E9450
:1047B000F723F8011082888188608883CF2DCF701D
:1047C000C083FF91EF91DF91CF91BF91AF919F9106
:1047D0008F917F916F915F914F913F912F911F9199
:1047E0000F91FF900F900FBE0F901F901895AAE2A7
:1047F000B0E0EDEFF3E20C9489258EE792E0FC0146
:1048000001962091F100208322E086389207B9F7C3
:104810000E94DF1E8091E80083FF38C080917E02F5
:1048200090917F029A3090F5E92FF0E0E757F94D2B
:104830000C946D25803889F0823841F58091820290
:104840008F70873018F58093E9008091EB0085FB2D
:10485000882780F91092E90006C080917A02909131
:104860007B02911182609091E800977F9093E8001D
:104870008093F1001092F1008091E8008E7723C0C0
:10488000811116C080918002813011F18091E80081
:1048900083FF0AC08091E800877F8093E8008091C1
:1048A000EB0080628093EB00AA96E3E00C94A525D0
:1048B000823061F780918002882389F01092E900AC
:1048C0008091E800877F8093E8000E940F22DECF6E
:1048D00081E0933009F080E080937B02EFCF8091FC
:1048E00082028F702FEF280F263080F68093E90028
:1048F0002091EB0020FFE2CF933031F48091EB0068
:1049000080628093EB00DACF9091EB0090619093FE
:10491000EB0021E030E0A90102C0440F551F8A9549
:10492000E2F74093EA001092EA008091EB00886081
:10493000E8CF8111ABCF109180021F778091E30007
:104940008078812B8093E3008091E800877F8093BB
:10495000E8000E940F228091E80080FFFCCF809148
:10496000E30080688093E30083E0111101C082E0DE
:1049700080937D028BCF8058823008F087CF809162
:104980008002909181028C3D53E0950799F583E078
:104990008A838AE289834FB7F894DE01139620E078
:1049A0003EE051E2E32FF0E050935700849120FF66
:1049B00003C082958F703F5F8F708A30C8F0895C2A
:1049C00090E08D939D932F5F243161F74FBF8091CD
:1049D000E800877F8093E8006AE270E0CE010196EC
:1049E0000E9426218091E8008B778093E8004ECFCB
:1049F000805DE6CF6091820270918302AE014F5FCD
:104A00005F4F0E941020BC01892B09F43FCF809199
:104A1000E800877F8093E80089819A810E94802145
:104A2000E1CF803809F032CF8091E800877F809312
:104A3000E800809179028093F1001ECF811126CF8A
:104A400090918002923008F021CF8091E800877F1A
:104A50008093E800909379020E940F22809179025E
:104A6000882331F084E080937D020E94C01E0ECF27
:104A70008091E30087FDF6CF81E0F5CF0895CF93D5
:104A800080917D02882399F08091E900C091EC002B
:104A9000C795CC27C7958F70C82B1092E9008091DD
:104AA000E80083FD0E94F723CF70C093E900CF9107
:104AB000089597FB072E16F4009407D077FD09D0D0
:104AC0000E94B12507FC05D03EF4909581959F4F3B
:104AD0000895709561957F4F0895EE0FFF1F059023
:104AE000F491E02D0994692796276927782787276D
:104AF000782708952F923F924F925F926F927F9204
:104B00008F929F92AF92BF92CF92DF92EF92FF92DD
:104B10000F931F93CF93DF93CDB7DEB7CA1BDB0B89
:104B20000FB6F894DEBF0FBECDBF09942A8839882E
:104B300048885F846E847D848C849B84AA84B98435
:104B4000C884DF80EE80FD800C811B81AA81B98141
:104B5000CE0FD11D0FB6F894DEBF0FBECDBFED0155
:104B60000895AA1BBB1B51E107C0AA1FBB1FA617B4
:104B7000B70710F0A61BB70B881F991F5A95A9F706
:104B800080959095BC01CD010895FB01DC0104C026
:104B90008D910190801921F441505040C8F7881B35
:104BA000990B0895FB01DC0102C001900D92415068
:104BB0005040D8F70895F999FECF92BD81BDF89A7B
:104BC000992780B50895A8E1B0E042E050E00C9448
:104BD0001F26DC01A40FB51F4150504048F0CB0107
:104BE000840F951F2E910E94FA2541505040D0F716
:104BF0000895262FF999FECF92BD81BDF89A0197AD
:104C000000B4021639F01FBA20BD0FB6F894FA9A14
:104C1000F99A0FBE08950396272F0E94FA250E9445
:104C2000F925252F0E94FA25242F0C94FA250196A8
:104C3000272F0E94FA250C94F925DC01CB01FC01F9
:104C4000F999FECF06C0F2BDE1BDF89A319600B4E5
:104C50000D9241505040B8F70895F894FFCF3D07AA
:104C60003D0784078407E90706086C076C070B08F3
:104C70007808890889083915AD1541150B150F15E8
:104C800045151315491555151F15A6152315591545
:104C900027155D1585152B1561158C1531156715B3
:104CA0006F1517154D151B15511535156B157B1502
:104CB0009515A41505153D15B415731676167C16B5
:104CC00091169116911691169116911691169116AC
:104CD0007F16841688168E169F16A516A916ED192E
:104CE000F319DD19E719F919FF19051A001B181B2B
:104CF000661B871B9B1BAF1BB21BB21BB21B231B6C
:104D0000231BB81BBE1BCA1BD91BEC1BEF1BF21BC2
:104D1000051C1A2440244624402446249924BB24FC
:064D2000462411251E25AA
:104D26001A02280850011E0A1401030201411E77C7
:104D36001E441E701E691E01F4F5F6F7313332C6A5
:104D460091909466970000000000E200E900EA00F6
:104D5600B500B600B700CD008301CC008A019201F0
:104D660094012102230224022502260227022A0296
:104D7600B300B4006F0070009F01CB019F02A00238
:104D8600E200E900EA00B500B600B700CD008301F5
:104D9600CC008A01920194012102230224022502F9
:104DA600260227022A02B300B4006F0070009F019A
:104DB600CB019F02A00244227B1C057F04A1042490
:064DC600043D045D040041
:00000001FF
